{
  "contractName": "Vanity",
  "abi": [
    {
      "anonymous": false,
      "inputs": [
        {
          "indexed": true,
          "internalType": "address",
          "name": "addr",
          "type": "address"
        },
        {
          "indexed": false,
          "internalType": "string",
          "name": "name",
          "type": "string"
        },
        {
          "indexed": false,
          "internalType": "uint256",
          "name": "expiration",
          "type": "uint256"
        }
      ],
      "name": "Bought",
      "type": "event"
    },
    {
      "anonymous": false,
      "inputs": [
        {
          "indexed": true,
          "internalType": "address",
          "name": "addr",
          "type": "address"
        },
        {
          "indexed": false,
          "internalType": "string",
          "name": "name",
          "type": "string"
        }
      ],
      "name": "Claimed",
      "type": "event"
    },
    {
      "anonymous": false,
      "inputs": [
        {
          "indexed": true,
          "internalType": "address",
          "name": "addr",
          "type": "address"
        },
        {
          "indexed": false,
          "internalType": "string",
          "name": "name",
          "type": "string"
        },
        {
          "indexed": false,
          "internalType": "uint256",
          "name": "expiration",
          "type": "uint256"
        }
      ],
      "name": "Renewed",
      "type": "event"
    },
    {
      "anonymous": false,
      "inputs": [
        {
          "indexed": false,
          "internalType": "bytes32",
          "name": "id",
          "type": "bytes32"
        }
      ],
      "name": "ReservationCanceled",
      "type": "event"
    },
    {
      "anonymous": false,
      "inputs": [
        {
          "indexed": true,
          "internalType": "address",
          "name": "addr",
          "type": "address"
        },
        {
          "indexed": false,
          "internalType": "bytes32",
          "name": "id",
          "type": "bytes32"
        },
        {
          "indexed": false,
          "internalType": "uint256",
          "name": "expiration",
          "type": "uint256"
        }
      ],
      "name": "Reserved",
      "type": "event"
    },
    {
      "inputs": [
        {
          "internalType": "bytes32",
          "name": "",
          "type": "bytes32"
        }
      ],
      "name": "_advances",
      "outputs": [
        {
          "internalType": "uint256",
          "name": "",
          "type": "uint256"
        }
      ],
      "stateMutability": "view",
      "type": "function",
      "constant": true
    },
    {
      "inputs": [
        {
          "internalType": "bytes32",
          "name": "",
          "type": "bytes32"
        }
      ],
      "name": "_registrations",
      "outputs": [
        {
          "internalType": "address",
          "name": "user",
          "type": "address"
        },
        {
          "internalType": "string",
          "name": "name",
          "type": "string"
        },
        {
          "internalType": "uint256",
          "name": "creation",
          "type": "uint256"
        },
        {
          "internalType": "uint256",
          "name": "expiration",
          "type": "uint256"
        },
        {
          "internalType": "uint256",
          "name": "amount",
          "type": "uint256"
        }
      ],
      "stateMutability": "view",
      "type": "function",
      "constant": true
    },
    {
      "inputs": [
        {
          "internalType": "bytes32",
          "name": "",
          "type": "bytes32"
        }
      ],
      "name": "_reservations",
      "outputs": [
        {
          "internalType": "address",
          "name": "user",
          "type": "address"
        },
        {
          "internalType": "uint256",
          "name": "expiration",
          "type": "uint256"
        }
      ],
      "stateMutability": "view",
      "type": "function",
      "constant": true
    },
    {
      "inputs": [
        {
          "internalType": "address",
          "name": "",
          "type": "address"
        },
        {
          "internalType": "uint256",
          "name": "",
          "type": "uint256"
        }
      ],
      "name": "_userLookup",
      "outputs": [
        {
          "internalType": "bytes32",
          "name": "",
          "type": "bytes32"
        }
      ],
      "stateMutability": "view",
      "type": "function",
      "constant": true
    },
    {
      "inputs": [
        {
          "internalType": "bytes32",
          "name": "registrationId",
          "type": "bytes32"
        },
        {
          "internalType": "string",
          "name": "name",
          "type": "string"
        }
      ],
      "name": "buy",
      "outputs": [
        {
          "internalType": "bytes32",
          "name": "",
          "type": "bytes32"
        },
        {
          "components": [
            {
              "internalType": "address",
              "name": "user",
              "type": "address"
            },
            {
              "internalType": "string",
              "name": "name",
              "type": "string"
            },
            {
              "internalType": "uint256",
              "name": "creation",
              "type": "uint256"
            },
            {
              "internalType": "uint256",
              "name": "expiration",
              "type": "uint256"
            },
            {
              "internalType": "uint256",
              "name": "amount",
              "type": "uint256"
            }
          ],
          "internalType": "struct Vanity.Registration",
          "name": "",
          "type": "tuple"
        }
      ],
      "stateMutability": "payable",
      "type": "function",
      "payable": true
    },
    {
      "inputs": [
        {
          "internalType": "string",
          "name": "name",
          "type": "string"
        }
      ],
      "name": "renew",
      "outputs": [
        {
          "internalType": "bool",
          "name": "",
          "type": "bool"
        }
      ],
      "stateMutability": "nonpayable",
      "type": "function"
    },
    {
      "inputs": [
        {
          "internalType": "string",
          "name": "name",
          "type": "string"
        }
      ],
      "name": "claim",
      "outputs": [
        {
          "internalType": "bool",
          "name": "",
          "type": "bool"
        }
      ],
      "stateMutability": "nonpayable",
      "type": "function"
    },
    {
      "inputs": [
        {
          "internalType": "bytes32",
          "name": "registrationId",
          "type": "bytes32"
        }
      ],
      "name": "reserve",
      "outputs": [
        {
          "internalType": "bool",
          "name": "",
          "type": "bool"
        }
      ],
      "stateMutability": "payable",
      "type": "function",
      "payable": true
    },
    {
      "inputs": [
        {
          "internalType": "bytes32",
          "name": "registrationId",
          "type": "bytes32"
        }
      ],
      "name": "cancelReservation",
      "outputs": [
        {
          "internalType": "bool",
          "name": "",
          "type": "bool"
        }
      ],
      "stateMutability": "nonpayable",
      "type": "function"
    },
    {
      "inputs": [
        {
          "internalType": "string",
          "name": "name",
          "type": "string"
        }
      ],
      "name": "getReservationId",
      "outputs": [
        {
          "internalType": "bytes32",
          "name": "",
          "type": "bytes32"
        }
      ],
      "stateMutability": "view",
      "type": "function",
      "constant": true
    },
    {
      "inputs": [
        {
          "internalType": "bytes32",
          "name": "registrationId",
          "type": "bytes32"
        }
      ],
      "name": "isAvailableById",
      "outputs": [
        {
          "internalType": "bool",
          "name": "",
          "type": "bool"
        }
      ],
      "stateMutability": "view",
      "type": "function",
      "constant": true
    },
    {
      "inputs": [
        {
          "internalType": "string",
          "name": "name",
          "type": "string"
        }
      ],
      "name": "isAvailableByValue",
      "outputs": [
        {
          "internalType": "bool",
          "name": "",
          "type": "bool"
        }
      ],
      "stateMutability": "view",
      "type": "function",
      "constant": true
    },
    {
      "inputs": [
        {
          "internalType": "string",
          "name": "name",
          "type": "string"
        }
      ],
      "name": "calculateFee",
      "outputs": [
        {
          "internalType": "uint256",
          "name": "",
          "type": "uint256"
        }
      ],
      "stateMutability": "view",
      "type": "function",
      "constant": true
    },
    {
      "inputs": [],
      "name": "getLockingAmount",
      "outputs": [
        {
          "internalType": "uint256",
          "name": "",
          "type": "uint256"
        }
      ],
      "stateMutability": "view",
      "type": "function",
      "constant": true
    },
    {
      "inputs": [],
      "name": "getAdvance",
      "outputs": [
        {
          "internalType": "uint256",
          "name": "",
          "type": "uint256"
        }
      ],
      "stateMutability": "view",
      "type": "function",
      "constant": true
    },
    {
      "inputs": [],
      "name": "getLockingPeriod",
      "outputs": [
        {
          "internalType": "uint256",
          "name": "",
          "type": "uint256"
        }
      ],
      "stateMutability": "view",
      "type": "function",
      "constant": true
    },
    {
      "inputs": [],
      "name": "getRenewPeriod",
      "outputs": [
        {
          "internalType": "uint256",
          "name": "",
          "type": "uint256"
        }
      ],
      "stateMutability": "view",
      "type": "function",
      "constant": true
    },
    {
      "inputs": [],
      "name": "getBasePrice",
      "outputs": [
        {
          "internalType": "uint256",
          "name": "",
          "type": "uint256"
        }
      ],
      "stateMutability": "view",
      "type": "function",
      "constant": true
    }
  ],
  "bytecode": "0x6080604052601460045560026004546200001a919062000083565b600555600a6006556005600755600160085560016009556005600a553480156200004357600080fd5b50620000bb565b6000819050919050565b7f4e487b7100000000000000000000000000000000000000000000000000000000600052601260045260246000fd5b600062000090826200004a565b91506200009d836200004a565b925082620000b057620000af62000054565b5b828204905092915050565b612a9480620000cb6000396000f3fe608060405260043610610126576000357c010000000000000000000000000000000000000000000000000000000090048063bd227065116100b2578063d218d12611610081578063d218d126146103f4578063d58328341461041f578063f3fe12c91461045c578063f983ec3014610499578063fc09535f146104ca57610126565b8063bd22706514610324578063bfce76e81461034f578063c67570241461038c578063ce53ab41146103c957610126565b8063432ced04116100f9578063432ced0414610211578063787d0d5314610241578063a2d6ca201461027f578063a4a9a612146102bc578063b49f4afd146102f957610126565b8063042763ad1461012b57806314a7669b146101685780631a4fbb79146101a5578063402fbbd8146101e6575b600080fd5b34801561013757600080fd5b50610152600480360381019061014d9190611fc3565b610507565b60405161015f9190612025565b60405180910390f35b34801561017457600080fd5b5061018f600480360381019061018a91906120ca565b610543565b60405161019c9190612123565b60405180910390f35b3480156101b157600080fd5b506101cc60048036038101906101c7919061216a565b610574565b6040516101dd95949392919061222e565b60405180910390f35b3480156101f257600080fd5b506101fb610652565b6040516102089190612025565b60405180910390f35b61022b6004803603810190610226919061216a565b61065c565b60405161023891906122a3565b60405180910390f35b34801561024d57600080fd5b506102686004803603810190610263919061216a565b6108f4565b6040516102769291906122be565b60405180910390f35b34801561028b57600080fd5b506102a660048036038101906102a1919061216a565b610938565b6040516102b391906122a3565b60405180910390f35b3480156102c857600080fd5b506102e360048036038101906102de9190611fc3565b6109fd565b6040516102f091906122a3565b60405180910390f35b34801561030557600080fd5b5061030e610d17565b60405161031b9190612025565b60405180910390f35b34801561033057600080fd5b50610339610d21565b6040516103469190612025565b60405180910390f35b34801561035b57600080fd5b506103766004803603810190610371919061216a565b610d2b565b60405161038391906122a3565b60405180910390f35b34801561039857600080fd5b506103b360048036038101906103ae9190611fc3565b610db8565b6040516103c09190612123565b60405180910390f35b3480156103d557600080fd5b506103de610e12565b6040516103eb9190612025565b60405180910390f35b34801561040057600080fd5b50610409610e1c565b6040516104169190612025565b60405180910390f35b34801561042b57600080fd5b5061044660048036038101906104419190611fc3565b610e26565b60405161045391906122a3565b60405180910390f35b34801561046857600080fd5b50610483600480360381019061047e9190611fc3565b610e45565b60405161049091906122a3565b60405180910390f35b6104b360048036038101906104ae91906122e7565b6110fe565b6040516104c1929190612421565b60405180910390f35b3480156104d657600080fd5b506104f160048036038101906104ec919061216a565b6116fd565b6040516104fe9190612025565b60405180910390f35b6000808260405160200161051b919061248d565b6040516020818303038152906040529050600854815161053b91906124d3565b915050919050565b6001602052816000526040600020818154811061055f57600080fd5b90600052602060002001600091509150505481565b60006020528060005260406000206000915090508060000160009054906101000a900473ffffffffffffffffffffffffffffffffffffffff16908060010180546105bd9061255c565b80601f01602080910402602001604051908101604052809291908181526020018280546105e99061255c565b80156106365780601f1061060b57610100808354040283529160200191610636565b820191906000526020600020905b81548152906001019060200180831161061957829003601f168201915b5050505050908060020154908060030154908060040154905085565b6000600654905090565b600061066782611715565b156106a7576040517f08c379a000000000000000000000000000000000000000000000000000000000815260040161069e906125da565b60405180910390fd5b6005546106b26117a5565b146106f2576040517f08c379a00000000000000000000000000000000000000000000000000000000081526004016106e990612646565b60405180910390fd5b600073ffffffffffffffffffffffffffffffffffffffff166002600084815260200190815260200160002060000160009054906101000a900473ffffffffffffffffffffffffffffffffffffffff1673ffffffffffffffffffffffffffffffffffffffff161415801561077b575060006002600084815260200190815260200160002060010154115b156107c2576107c0826002600085815260200190815260200160002060000160009054906101000a900473ffffffffffffffffffffffffffffffffffffffff166117ad565b505b60405180604001604052806107d56118be565b73ffffffffffffffffffffffffffffffffffffffff168152602001600a54426107fe9190612666565b8152506002600084815260200190815260200160002060008201518160000160006101000a81548173ffffffffffffffffffffffffffffffffffffffff021916908373ffffffffffffffffffffffffffffffffffffffff160217905550602082015181600101559050506108706117a5565b600360008481526020019081526020016000208190555061088f6118be565b73ffffffffffffffffffffffffffffffffffffffff167f016a36e7a42978fc2851f1575395c45fc752cb8e3cabef21573ecd2e2413505f83600a54426108d59190612666565b6040516108e39291906126bc565b60405180910390a260019050919050565b60026020528060005260406000206000915090508060000160009054906101000a900473ffffffffffffffffffffffffffffffffffffffff16908060010154905082565b60006109426118be565b73ffffffffffffffffffffffffffffffffffffffff166002600084815260200190815260200160002060000160009054906101000a900473ffffffffffffffffffffffffffffffffffffffff1673ffffffffffffffffffffffffffffffffffffffff16146109e5576040517f08c379a00000000000000000000000000000000000000000000000000000000081526004016109dc90612731565b60405180910390fd5b6109f6826109f16118be565b6117ad565b9050919050565b600080610a09836118c6565b905060008060008381526020019081526020016000206040518060a00160405290816000820160009054906101000a900473ffffffffffffffffffffffffffffffffffffffff1673ffffffffffffffffffffffffffffffffffffffff1673ffffffffffffffffffffffffffffffffffffffff168152602001600182018054610a909061255c565b80601f0160208091040260200160405190810160405280929190818152602001828054610abc9061255c565b8015610b095780601f10610ade57610100808354040283529160200191610b09565b820191906000526020600020905b815481529060010190602001808311610aec57829003601f168201915b5050505050815260200160028201548152602001600382015481526020016004820154815250509050610b3a6118be565b73ffffffffffffffffffffffffffffffffffffffff16816000015173ffffffffffffffffffffffffffffffffffffffff1614610bab576040517f08c379a0000000000000000000000000000000000000000000000000000000008152600401610ba290612731565b60405180910390fd5b806060015160075442610bbe9190612666565b1015610bff576040517f08c379a0000000000000000000000000000000000000000000000000000000008152600401610bf69061279d565b60405180910390fd5b610c0d8482606001516118f8565b60008084815260200190815260200160002060008201518160000160006101000a81548173ffffffffffffffffffffffffffffffffffffffff021916908373ffffffffffffffffffffffffffffffffffffffff1602179055506020820151816001019080519060200190610c82929190611d41565b50604082015181600201556060820151816003015560808201518160040155905050610cac6118be565b73ffffffffffffffffffffffffffffffffffffffff167f6a1afce8dbf5b1924e6017447ec002549a95894acce2aac968d3d088d0122141856006548460600151610cf69190612666565b604051610d049291906127bd565b60405180910390a2600192505050919050565b6000600854905090565b6000600554905090565b60008073ffffffffffffffffffffffffffffffffffffffff1660008084815260200190815260200160002060000160009054906101000a900473ffffffffffffffffffffffffffffffffffffffff1673ffffffffffffffffffffffffffffffffffffffff161480610db15750600080838152602001908152602001600020600301544210155b9050919050565b6000610dc382610e26565b610e02576040517f08c379a0000000000000000000000000000000000000000000000000000000008152600401610df990612839565b60405180910390fd5b610e0b826118c6565b9050919050565b6000600754905090565b6000600454905090565b600080610e32836118c6565b9050610e3d81610d2b565b915050919050565b600080610e51836118c6565b905060008060008381526020019081526020016000206040518060a00160405290816000820160009054906101000a900473ffffffffffffffffffffffffffffffffffffffff1673ffffffffffffffffffffffffffffffffffffffff1673ffffffffffffffffffffffffffffffffffffffff168152602001600182018054610ed89061255c565b80601f0160208091040260200160405190810160405280929190818152602001828054610f049061255c565b8015610f515780601f10610f2657610100808354040283529160200191610f51565b820191906000526020600020905b815481529060010190602001808311610f3457829003601f168201915b5050505050815260200160028201548152602001600382015481526020016004820154815250509050610f826118be565b73ffffffffffffffffffffffffffffffffffffffff16816000015173ffffffffffffffffffffffffffffffffffffffff1614610ff3576040517f08c379a0000000000000000000000000000000000000000000000000000000008152600401610fea90612731565b60405180910390fd5b806060015142101561103a576040517f08c379a00000000000000000000000000000000000000000000000000000000081526004016110319061279d565b60405180910390fd5b61104b6110456118be565b8361195b565b506110546118be565b73ffffffffffffffffffffffffffffffffffffffff167f4ef887714b6ae4b4e5b624f78fb37bc493b148ca911452610d6ef8bffc0704e2856040516110999190612859565b60405180910390a26110a96118be565b73ffffffffffffffffffffffffffffffffffffffff166108fc82608001519081150290604051600060405180830381858888f193505050501580156110f2573d6000803e3d6000fd5b50600192505050919050565b6000611108611dc7565b61111184611715565b611150576040517f08c379a0000000000000000000000000000000000000000000000000000000008152600401611147906128c7565b60405180910390fd5b611159836118c6565b841461116457600080fd5b61116c6118be565b73ffffffffffffffffffffffffffffffffffffffff166002600086815260200190815260200160002060000160009054906101000a900473ffffffffffffffffffffffffffffffffffffffff1673ffffffffffffffffffffffffffffffffffffffff161461120f576040517f08c379a000000000000000000000000000000000000000000000000000000000815260040161120690612731565b60405180910390fd5b6000600360008681526020019081526020016000205490506000816112326117a5565b61123c9190612666565b9050600061124986610507565b6004546112569190612666565b90508082101561129b576040517f08c379a000000000000000000000000000000000000000000000000000000000815260040161129290612933565b60405180910390fd5b600073ffffffffffffffffffffffffffffffffffffffff1660008089815260200190815260200160002060000160009054906101000a900473ffffffffffffffffffffffffffffffffffffffff1673ffffffffffffffffffffffffffffffffffffffff16141580156113225750600080888152602001908152602001600020600301544210155b156114be5760008060008981526020019081526020016000206040518060a00160405290816000820160009054906101000a900473ffffffffffffffffffffffffffffffffffffffff1673ffffffffffffffffffffffffffffffffffffffff1673ffffffffffffffffffffffffffffffffffffffff1681526020016001820180546113ac9061255c565b80601f01602080910402602001604051908101604052809291908181526020018280546113d89061255c565b80156114255780601f106113fa57610100808354040283529160200191611425565b820191906000526020600020905b81548152906001019060200180831161140857829003601f168201915b5050505050815260200160028201548152602001600382015481526020016004820154815250509050600081600001519050611461818a61195b565b506000826080015111156114bb578073ffffffffffffffffffffffffffffffffffffffff166108fc83608001519081150290604051600060405180830381858888f193505050501580156114b9573d6000803e3d6000fd5b505b50505b60006114ca87426118f8565b9050806000808a815260200190815260200160002060008201518160000160006101000a81548173ffffffffffffffffffffffffffffffffffffffff021916908373ffffffffffffffffffffffffffffffffffffffff1602179055506020820151816001019080519060200190611542929190611d41565b50604082015181600201556060820151816003015560808201518160040155905050600160006115706118be565b73ffffffffffffffffffffffffffffffffffffffff1673ffffffffffffffffffffffffffffffffffffffff16815260200190815260200160002088908060018154018082558091505060019003906000526020600020016000909190919091505560026000898152602001908152602001600020600080820160006101000a81549073ffffffffffffffffffffffffffffffffffffffff02191690556001820160009055505060036000898152602001908152602001600020600090556116356118be565b73ffffffffffffffffffffffffffffffffffffffff167f6b9a951e0a80635c35364f8eb65fd15126b67040e818e599c7ea99cc0baa53008883606001516040516116809291906127bd565b60405180910390a26004548311156116ec5761169a6118be565b73ffffffffffffffffffffffffffffffffffffffff166108fc83856116bf9190612953565b9081150290604051600060405180830381858888f193505050501580156116ea573d6000803e3d6000fd5b505b878195509550505050509250929050565b60036020528060005260406000206000915090505481565b60008073ffffffffffffffffffffffffffffffffffffffff166002600084815260200190815260200160002060000160009054906101000a900473ffffffffffffffffffffffffffffffffffffffff1673ffffffffffffffffffffffffffffffffffffffff161415801561179e5750600260008381526020019081526020016000206001015442105b9050919050565b600034905090565b60008060095460036000868152602001908152602001600020546117d19190612953565b9050600360008581526020019081526020016000206000905560026000858152602001908152602001600020600080820160006101000a81549073ffffffffffffffffffffffffffffffffffffffff02191690556001820160009055505060008390507f0c8af285c26bf16e797dd501e171df36c64babe844618ca99cdcfebedb2c16da856040516118639190612123565b60405180910390a18073ffffffffffffffffffffffffffffffffffffffff166108fc839081150290604051600060405180830381858888f193505050501580156118b1573d6000803e3d6000fd5b5060019250505092915050565b600033905090565b600030826040516020016118db929190612987565b604051602081830303815290604052805190602001209050919050565b611900611dc7565b6040518060a001604052806119136118be565b73ffffffffffffffffffffffffffffffffffffffff168152602001848152602001838152602001600654846119489190612666565b8152602001600454815250905092915050565b611963611dc7565b600080838152602001908152602001600020600080820160006101000a81549073ffffffffffffffffffffffffffffffffffffffff02191690556001820160006119ad9190611e0c565b60028201600090556003820160009055600482016000905550506000600160008573ffffffffffffffffffffffffffffffffffffffff1673ffffffffffffffffffffffffffffffffffffffff168152602001908152602001600020805480602002602001604051908101604052809291908181526020018280548015611a5257602002820191906000526020600020905b815481526020019060010190808311611a3e575b50505050509050600060018251611a699190612953565b905060005b8251811015611ab45784838281518110611a8b57611a8a6129b7565b5b60200260200101511415611aa157809150611ab4565b8080611aac906129e6565b915050611a6e565b5060008260018451611ac69190612953565b81518110611ad757611ad66129b7565b5b6020026020010151905084600160008873ffffffffffffffffffffffffffffffffffffffff1673ffffffffffffffffffffffffffffffffffffffff16815260200190815260200160002060018551611b2f9190612953565b81548110611b4057611b3f6129b7565b5b906000526020600020018190555080600160008873ffffffffffffffffffffffffffffffffffffffff1673ffffffffffffffffffffffffffffffffffffffff1681526020019081526020016000208381548110611ba057611b9f6129b7565b5b9060005260206000200181905550600160008773ffffffffffffffffffffffffffffffffffffffff1673ffffffffffffffffffffffffffffffffffffffff168152602001908152602001600020805480611bfd57611bfc612a2f565b5b600190038181906000526020600020016000905590556000808681526020019081526020016000206040518060a00160405290816000820160009054906101000a900473ffffffffffffffffffffffffffffffffffffffff1673ffffffffffffffffffffffffffffffffffffffff1673ffffffffffffffffffffffffffffffffffffffff168152602001600182018054611c969061255c565b80601f0160208091040260200160405190810160405280929190818152602001828054611cc29061255c565b8015611d0f5780601f10611ce457610100808354040283529160200191611d0f565b820191906000526020600020905b815481529060010190602001808311611cf257829003601f168201915b505050505081526020016002820154815260200160038201548152602001600482015481525050935050505092915050565b828054611d4d9061255c565b90600052602060002090601f016020900481019282611d6f5760008555611db6565b82601f10611d8857805160ff1916838001178555611db6565b82800160010185558215611db6579182015b82811115611db5578251825591602001919060010190611d9a565b5b509050611dc39190611e4c565b5090565b6040518060a00160405280600073ffffffffffffffffffffffffffffffffffffffff168152602001606081526020016000815260200160008152602001600081525090565b508054611e189061255c565b6000825580601f10611e2a5750611e49565b601f016020900490600052602060002090810190611e489190611e4c565b5b50565b5b80821115611e65576000816000905550600101611e4d565b5090565b6000604051905090565b600080fd5b600080fd5b600080fd5b600080fd5b6000601f19601f8301169050919050565b7f4e487b7100000000000000000000000000000000000000000000000000000000600052604160045260246000fd5b611ed082611e87565b810181811067ffffffffffffffff82111715611eef57611eee611e98565b5b80604052505050565b6000611f02611e69565b9050611f0e8282611ec7565b919050565b600067ffffffffffffffff821115611f2e57611f2d611e98565b5b611f3782611e87565b9050602081019050919050565b82818337600083830152505050565b6000611f66611f6184611f13565b611ef8565b905082815260208101848484011115611f8257611f81611e82565b5b611f8d848285611f44565b509392505050565b600082601f830112611faa57611fa9611e7d565b5b8135611fba848260208601611f53565b91505092915050565b600060208284031215611fd957611fd8611e73565b5b600082013567ffffffffffffffff811115611ff757611ff6611e78565b5b61200384828501611f95565b91505092915050565b6000819050919050565b61201f8161200c565b82525050565b600060208201905061203a6000830184612016565b92915050565b600073ffffffffffffffffffffffffffffffffffffffff82169050919050565b600061206b82612040565b9050919050565b61207b81612060565b811461208657600080fd5b50565b60008135905061209881612072565b92915050565b6120a78161200c565b81146120b257600080fd5b50565b6000813590506120c48161209e565b92915050565b600080604083850312156120e1576120e0611e73565b5b60006120ef85828601612089565b9250506020612100858286016120b5565b9150509250929050565b6000819050919050565b61211d8161210a565b82525050565b60006020820190506121386000830184612114565b92915050565b6121478161210a565b811461215257600080fd5b50565b6000813590506121648161213e565b92915050565b6000602082840312156121805761217f611e73565b5b600061218e84828501612155565b91505092915050565b6121a081612060565b82525050565b600081519050919050565b600082825260208201905092915050565b60005b838110156121e05780820151818401526020810190506121c5565b838111156121ef576000848401525b50505050565b6000612200826121a6565b61220a81856121b1565b935061221a8185602086016121c2565b61222381611e87565b840191505092915050565b600060a0820190506122436000830188612197565b818103602083015261225581876121f5565b90506122646040830186612016565b6122716060830185612016565b61227e6080830184612016565b9695505050505050565b60008115159050919050565b61229d81612288565b82525050565b60006020820190506122b86000830184612294565b92915050565b60006040820190506122d36000830185612197565b6122e06020830184612016565b9392505050565b600080604083850312156122fe576122fd611e73565b5b600061230c85828601612155565b925050602083013567ffffffffffffffff81111561232d5761232c611e78565b5b61233985828601611f95565b9150509250929050565b61234c81612060565b82525050565b600082825260208201905092915050565b600061236e826121a6565b6123788185612352565b93506123888185602086016121c2565b61239181611e87565b840191505092915050565b6123a58161200c565b82525050565b600060a0830160008301516123c36000860182612343565b50602083015184820360208601526123db8282612363565b91505060408301516123f0604086018261239c565b506060830151612403606086018261239c565b506080830151612416608086018261239c565b508091505092915050565b60006040820190506124366000830185612114565b818103602083015261244881846123ab565b90509392505050565b600081905092915050565b6000612467826121a6565b6124718185612451565b93506124818185602086016121c2565b80840191505092915050565b6000612499828461245c565b915081905092915050565b7f4e487b7100000000000000000000000000000000000000000000000000000000600052601160045260246000fd5b60006124de8261200c565b91506124e98361200c565b9250817fffffffffffffffffffffffffffffffffffffffffffffffffffffffffffffffff0483118215151615612522576125216124a4565b5b828202905092915050565b7f4e487b7100000000000000000000000000000000000000000000000000000000600052602260045260246000fd5b6000600282049050600182168061257457607f821691505b602082108114156125885761258761252d565b5b50919050565b7f5265736572766174696f6e206578697374730000000000000000000000000000600082015250565b60006125c46012836121b1565b91506125cf8261258e565b602082019050919050565b600060208201905081810360008301526125f3816125b7565b9050919050565b7f496e76616c696420616d6f756e74000000000000000000000000000000000000600082015250565b6000612630600e836121b1565b915061263b826125fa565b602082019050919050565b6000602082019050818103600083015261265f81612623565b9050919050565b60006126718261200c565b915061267c8361200c565b9250827fffffffffffffffffffffffffffffffffffffffffffffffffffffffffffffffff038211156126b1576126b06124a4565b5b828201905092915050565b60006040820190506126d16000830185612114565b6126de6020830184612016565b9392505050565b7f416363657373206e6f7420616c6c6f7765640000000000000000000000000000600082015250565b600061271b6012836121b1565b9150612726826126e5565b602082019050919050565b6000602082019050818103600083015261274a8161270e565b9050919050565b7f4e6f7420616c6c6f776564207965742e00000000000000000000000000000000600082015250565b60006127876010836121b1565b915061279282612751565b602082019050919050565b600060208201905081810360008301526127b68161277a565b9050919050565b600060408201905081810360008301526127d781856121f5565b90506127e66020830184612016565b9392505050565b7f4e6f7420617661696c61626c6500000000000000000000000000000000000000600082015250565b6000612823600d836121b1565b915061282e826127ed565b602082019050919050565b6000602082019050818103600083015261285281612816565b9050919050565b6000602082019050818103600083015261287381846121f5565b905092915050565b7f5265736572766174696f6e20646f65736e277420657869737473000000000000600082015250565b60006128b1601a836121b1565b91506128bc8261287b565b602082019050919050565b600060208201905081810360008301526128e0816128a4565b9050919050565b7f496e73756666696369656e7420616d6f756e7400000000000000000000000000600082015250565b600061291d6013836121b1565b9150612928826128e7565b602082019050919050565b6000602082019050818103600083015261294c81612910565b9050919050565b600061295e8261200c565b91506129698361200c565b92508282101561297c5761297b6124a4565b5b828203905092915050565b600060408201905061299c6000830185612197565b81810360208301526129ae81846121f5565b90509392505050565b7f4e487b7100000000000000000000000000000000000000000000000000000000600052603260045260246000fd5b60006129f18261200c565b91507fffffffffffffffffffffffffffffffffffffffffffffffffffffffffffffffff821415612a2457612a236124a4565b5b600182019050919050565b7f4e487b7100000000000000000000000000000000000000000000000000000000600052603160045260246000fdfea2646970667358221220b546c306dfaa023d78caa2901efb50dfbc92ddfa8afc18299a169d90031bb0b564736f6c634300080c0033",
  "immutableReferences": {},
  "source": "// SPDX-License-Identifier: MIT\r\npragma solidity ^0.8.1;\r\n\r\nimport \"./Context.sol\";\r\n\r\ncontract Vanity is Context {\r\n    struct Registration {\r\n        address user;\r\n        string name;\r\n        uint256 creation;\r\n        uint256 expiration;\r\n        uint256 amount;\r\n    }\r\n    struct Reservation {\r\n        address user;\r\n        uint256 expiration;\r\n    }\r\n\r\n    mapping(bytes32 => Registration) public _registrations;\r\n    mapping(address => bytes32[]) public _userLookup;\r\n    mapping(bytes32 => Reservation) public _reservations;\r\n    mapping(bytes32 => uint256) public _advances;\r\n    uint256 _lockingAmount = 20;\r\n    uint256 _advance = _lockingAmount / 2;\r\n    uint256 _lockingPeriod = 10 seconds; //365 days;\r\n    uint256 _renewPeriod = 5 seconds; //5 days;\r\n    uint256 _basePrice = 1;\r\n    uint256 _cancellationFee = 1;\r\n    uint256 _reservationPeriod = 5 seconds; //1 days;\r\n\r\n    /**\r\n     * @dev Allows user which has previously reserved `Registration` using `registrationId` to buy\r\n     * `name` for `_lockingPeriod` of time. Method accepts  payment with amount of `_advance` plus fee.\r\n     */\r\n    function buy(bytes32 registrationId, string memory name)\r\n        external\r\n        payable\r\n        returns (bytes32, Registration memory)\r\n    {\r\n        require(\r\n            _reservationValid(registrationId),\r\n            \"Reservation doesn't exists\"\r\n        );\r\n        require(registrationId == _createRegistrationId(name));\r\n        require(\r\n            _reservations[registrationId].user == address(_msgSender()),\r\n            \"Access not allowed\"\r\n        );\r\n\r\n        uint256 advance = _advances[registrationId];\r\n        uint256 payed = _msgValue() + advance;\r\n        uint256 toPay = _lockingAmount + calculateFee(name);\r\n        require(payed >= toPay, \"Insufficient amount\");\r\n        if (\r\n            _registrations[registrationId].user != address(0) &&\r\n            block.timestamp >= _registrations[registrationId].expiration\r\n        ) {\r\n            Registration memory oldRegistration = _registrations[\r\n                registrationId\r\n            ];\r\n            address payable receiver = payable(oldRegistration.user);\r\n            _cleanRegistration(receiver, registrationId);\r\n            if (oldRegistration.amount > 0) {\r\n                receiver.transfer(oldRegistration.amount);\r\n            }\r\n        }\r\n        Registration memory registration = _createRegistration(\r\n            name,\r\n            block.timestamp\r\n        );\r\n        _registrations[registrationId] = registration;\r\n        _userLookup[_msgSender()].push(registrationId);\r\n        delete _reservations[registrationId];\r\n        delete _advances[registrationId];\r\n        emit Bought(_msgSender(), name, registration.expiration);\r\n        if (payed > _lockingAmount) {\r\n            _msgSender().transfer(payed - toPay);\r\n        }\r\n        return (registrationId, registration);\r\n    }\r\n\r\n    /**\r\n     * @dev Factory method for `Registration`.\r\n     */\r\n    function _createRegistration(string memory name, uint256 startTimestamp)\r\n        internal\r\n        view\r\n        returns (Registration memory)\r\n    {\r\n        return\r\n            Registration(\r\n                _msgSender(),\r\n                name,\r\n                startTimestamp,\r\n                startTimestamp + _lockingPeriod,\r\n                _lockingAmount\r\n            );\r\n    }\r\n\r\n    /**\r\n     * @dev Allows `_msgSender()` to renew already bought `Registration` for `name`.\r\n     * Renewals is available `_renewPeriod` before Registration expiration.\r\n     */\r\n    function renew(string memory name) external returns (bool) {\r\n        bytes32 registrationId = _createRegistrationId(name);\r\n        Registration memory registration = _registrations[registrationId];\r\n        require(\r\n            registration.user == address(_msgSender()),\r\n            \"Access not allowed\"\r\n        );\r\n        require(\r\n            (block.timestamp + _renewPeriod) >= registration.expiration,\r\n            \"Not allowed yet.\"\r\n        );\r\n        _registrations[registrationId] = _createRegistration(\r\n            name,\r\n            registration.expiration\r\n        );\r\n        emit Renewed(\r\n            _msgSender(),\r\n            name,\r\n            registration.expiration + _lockingPeriod\r\n        );\r\n        return true;\r\n    }\r\n\r\n    /**\r\n     * @dev Claims `_lockingAmount` amount which is locked during the buy.\r\n     * Frees registration of `name` so it can be used again.\r\n     */\r\n    function claim(string memory name) external returns (bool) {\r\n        bytes32 registrationId = _createRegistrationId(name);\r\n        Registration memory registration = _registrations[registrationId];\r\n        require(\r\n            registration.user == address(_msgSender()),\r\n            \"Access not allowed\"\r\n        );\r\n        require(block.timestamp >= registration.expiration, \"Not allowed yet.\");\r\n        _cleanRegistration(_msgSender(), registrationId);\r\n        emit Claimed(_msgSender(), name);\r\n        _msgSender().transfer(registration.amount);\r\n        return true;\r\n    }\r\n\r\n    /**\r\n     * @dev Removes registration from `_registrations` and `_userLookup`.\r\n     */\r\n    function _cleanRegistration(address addr, bytes32 registrationId)\r\n        internal\r\n        returns (Registration memory)\r\n    {\r\n        delete _registrations[registrationId];\r\n        bytes32[] memory lookup = _userLookup[addr];\r\n        uint256 index = lookup.length - 1;\r\n        for (uint256 i = 0; i < lookup.length; i++) {\r\n            if (lookup[i] == registrationId) {\r\n                index = i;\r\n                break;\r\n            }\r\n        }\r\n        bytes32 tmp = lookup[lookup.length - 1];\r\n        _userLookup[addr][lookup.length - 1] = registrationId;\r\n        _userLookup[addr][index] = tmp;\r\n        _userLookup[addr].pop();\r\n        return _registrations[registrationId];\r\n    }\r\n\r\n    /**\r\n     * @dev Derives `registrationId` from `name`, returns bytes32 hash.\r\n     */\r\n    function _createRegistrationId(string memory name)\r\n        internal\r\n        view\r\n        returns (bytes32)\r\n    {\r\n        return keccak256(abi.encode(address(this), name));\r\n    }\r\n\r\n    /**\r\n     * @dev Reserves registration identified with `registrationId` which is derived from `name`.\r\n     * Accepts as value `_advance`. Reservation last for `_reservationPeriod` period of time.\r\n     * If prior registration with same `registrationId` which `_reservationPeriod` is expired is fount it is canceled.\r\n     */\r\n    function reserve(bytes32 registrationId) external payable returns (bool) {\r\n        require(!_reservationValid(registrationId), \"Reservation exists\");\r\n        require(_msgValue() == _advance, \"Invalid amount\");\r\n        if (\r\n            _reservations[registrationId].user != address(0) &&\r\n            _reservations[registrationId].expiration > 0\r\n        ) {\r\n            _cancelReservation(\r\n                registrationId,\r\n                _reservations[registrationId].user\r\n            );\r\n        }\r\n        _reservations[registrationId] = Reservation(\r\n            _msgSender(),\r\n            block.timestamp + _reservationPeriod\r\n        );\r\n        _advances[registrationId] = _msgValue();\r\n        emit Reserved(\r\n            _msgSender(),\r\n            registrationId,\r\n            block.timestamp + _reservationPeriod\r\n        );\r\n        return true;\r\n    }\r\n\r\n    /**\r\n     * @dev Cancels `registrationId` and returns `advance` amount minus `_cancellationFee`.\r\n     * `_msgSender()` must be owner of reservation.\r\n     */\r\n    function cancelReservation(bytes32 registrationId) public returns (bool) {\r\n        require(\r\n            _reservations[registrationId].user == address(_msgSender()),\r\n            \"Access not allowed\"\r\n        );\r\n        return _cancelReservation(registrationId, _msgSender());\r\n    }\r\n\r\n    /**\r\n     * @dev Cancels `registrationId` and returns `advance` amount minus `_cancellationFee`.\r\n     */\r\n    function _cancelReservation(bytes32 registrationId, address addr)\r\n        internal\r\n        returns (bool)\r\n    {\r\n        uint256 toPay = _advances[registrationId] - _cancellationFee;\r\n        delete _advances[registrationId];\r\n        delete _reservations[registrationId];\r\n        address payable receiver = payable(addr);\r\n        emit ReservationCanceled(registrationId);\r\n        receiver.transfer(toPay);\r\n        return true;\r\n    }\r\n\r\n    /**\r\n     * @dev Utility function which checks validity of reservationId.\r\n     */\r\n    function _reservationValid(bytes32 registrationId)\r\n        internal\r\n        view\r\n        returns (bool)\r\n    {\r\n        return\r\n            _reservations[registrationId].user != address(0) &&\r\n            block.timestamp < _reservations[registrationId].expiration;\r\n    }\r\n\r\n    /**\r\n     * @dev Creates `registrationId` from `name`,\r\n     returns bytes32.\r\n     */\r\n    function getReservationId(string memory name)\r\n        external\r\n        view\r\n        returns (bytes32)\r\n    {\r\n        require(isAvailableByValue(name), \"Not available\");\r\n        return _createRegistrationId(name);\r\n    }\r\n\r\n    /**\r\n     * @dev Checks if `registrationId` which is derived from `name` is available for registration.\r\n     */\r\n    function isAvailableById(bytes32 registrationId)\r\n        public\r\n        view\r\n        returns (bool)\r\n    {\r\n        return\r\n            _registrations[registrationId].user == address(0) ||\r\n            block.timestamp >= _registrations[registrationId].expiration;\r\n    }\r\n\r\n    /**\r\n     * @dev Checks if `name` is available for registration.\r\n     */\r\n    function isAvailableByValue(string memory name) public view returns (bool) {\r\n        bytes32 registrationId = _createRegistrationId(name);\r\n        return isAvailableById(registrationId);\r\n    }\r\n\r\n    /**\r\n     * @dev Calculates fee based on `_basePrice` and `name` length,\r\n     returns `uint256`.\r\n     */\r\n    function calculateFee(string memory name) public view returns (uint256) {\r\n        bytes memory b = abi.encodePacked(name);\r\n        return b.length * _basePrice;\r\n    }\r\n\r\n    /**\r\n     * @dev Getter for `_lockingAmount`.\r\n     */\r\n    function getLockingAmount() public view returns (uint256) {\r\n        return _lockingAmount;\r\n    }\r\n\r\n    /**\r\n     * @dev Getter for `_advance`.\r\n     */\r\n    function getAdvance() public view returns (uint256) {\r\n        return _advance;\r\n    }\r\n\r\n    /**\r\n     * @dev Getter for `_lockingPeriod`.\r\n     */\r\n    function getLockingPeriod() public view returns (uint256) {\r\n        return _lockingPeriod;\r\n    }\r\n\r\n    /**\r\n     * @dev Getter for `_renewPeriod`.\r\n     */\r\n    function getRenewPeriod() public view returns (uint256) {\r\n        return _renewPeriod;\r\n    }\r\n\r\n    /**\r\n     * @dev Getter for `_basePrice`.\r\n     */\r\n    function getBasePrice() public view returns (uint256) {\r\n        return _basePrice;\r\n    }\r\n\r\n    /**\r\n     * @dev It is emitted when `name` is bought.\r\n     */\r\n    event Bought(address indexed addr, string name, uint256 expiration);\r\n    /**\r\n     * @dev It is emitted when `id` is reserved.\r\n     */\r\n    event Reserved(address indexed addr, bytes32 id, uint256 expiration);\r\n    /**\r\n     * @dev It is emitted when  reservation with `id` is canceled.\r\n     */\r\n    event ReservationCanceled(bytes32 id);\r\n    /**\r\n     * @dev It is emitted when  `name` is renewed.\r\n     */\r\n    event Renewed(address indexed addr, string name, uint256 expiration);\r\n    /**\r\n     * @dev It is emitted when amount locked for `name` is claimed.\r\n     */\r\n    event Claimed(address indexed addr, string name);\r\n}\r\n",
  "sourcePath": "V:\\Radic\\ABAG\\Task 4\\contracts\\Vanity.sol",
  "compiler": {
    "name": "solc",
    "version": "0.8.12+commit.f00d7308.Emscripten.clang"
  },
  "schemaVersion": "3.4.5",
  "updatedAt": "2022-04-04T20:49:34.472Z",
  "networkType": "ethereum",
  "devdoc": {
    "events": {
      "Bought(address,string,uint256)": {
        "details": "It is emitted when `name` is bought."
      },
      "Claimed(address,string)": {
        "details": "It is emitted when amount locked for `name` is claimed."
      },
      "Renewed(address,string,uint256)": {
        "details": "It is emitted when  `name` is renewed."
      },
      "ReservationCanceled(bytes32)": {
        "details": "It is emitted when  reservation with `id` is canceled."
      },
      "Reserved(address,bytes32,uint256)": {
        "details": "It is emitted when `id` is reserved."
      }
    },
    "kind": "dev",
    "methods": {
      "buy(bytes32,string)": {
        "details": "Allows user which has previously reserved `Registration` using `registrationId` to buy `name` for `_lockingPeriod` of time. Method accepts  payment with amount of `_advance` plus fee."
      },
      "calculateFee(string)": {
        "details": "Calculates fee based on `_basePrice` and `name` length, returns `uint256`."
      },
      "cancelReservation(bytes32)": {
        "details": "Cancels `registrationId` and returns `advance` amount minus `_cancellationFee`. `_msgSender()` must be owner of reservation."
      },
      "claim(string)": {
        "details": "Claims `_lockingAmount` amount which is locked during the buy. Frees registration of `name` so it can be used again."
      },
      "getAdvance()": {
        "details": "Getter for `_advance`."
      },
      "getBasePrice()": {
        "details": "Getter for `_basePrice`."
      },
      "getLockingAmount()": {
        "details": "Getter for `_lockingAmount`."
      },
      "getLockingPeriod()": {
        "details": "Getter for `_lockingPeriod`."
      },
      "getRenewPeriod()": {
        "details": "Getter for `_renewPeriod`."
      },
      "getReservationId(string)": {
        "details": "Creates `registrationId` from `name`, returns bytes32."
      },
      "isAvailableById(bytes32)": {
        "details": "Checks if `registrationId` which is derived from `name` is available for registration."
      },
      "isAvailableByValue(string)": {
        "details": "Checks if `name` is available for registration."
      },
      "renew(string)": {
        "details": "Allows `_msgSender()` to renew already bought `Registration` for `name`. Renewals is available `_renewPeriod` before Registration expiration."
      },
      "reserve(bytes32)": {
        "details": "Reserves registration identified with `registrationId` which is derived from `name`. Accepts as value `_advance`. Reservation last for `_reservationPeriod` period of time. If prior registration with same `registrationId` which `_reservationPeriod` is expired is fount it is canceled."
      }
    },
    "version": 1
  },
  "userdoc": {
    "kind": "user",
    "methods": {},
    "version": 1
  }
}